S01200007374616E64616C6F6E652E73726563E9
S31500000000580D0020818E0000AD8C00007D8E000012
S315000000107D8E00007D8E00007D8E00007D8E0000AE
S315000000200000000000000000000000007D8E0000BF
S315000000307D8E0000000000007D8E00007D8E000099
S31500000040FFFFFFFFFFFFFFFFFFFFFFFFFFFFFFFFBA
S31500000050FFFFFFFFFFFFFFFFFFFFFFFFFFFFFFFFAA
S31500000060FFFFFFFFFFFFFFFFFFFFFFFFFFFFFFFF9A
S31500000070FFFFFFFFFFFFFFFFFFFFFFFFFFFFFFFF8A
S3150000008010B5054C237833B9044B13B1044800E08E
S3150000009000BF0123237010BD700300200000000084
S315000000A0D837010008B5034B1BB10349034800E0EC
S315000000B000BF08BD0000000074030020D83701000F
S315000000C0054AD2E90032D21AB1EBE20FBABF03EB0E
S315000000D0C101486800207047FC070020014800EB7A
S315000000E0811070478C030020024801EB410100EBB0
S315000000F0810070479006002010B50446006808B1DC
S3150000010008F09CFF204610BD10B50446006808B1F3
S3150000011008F094FF204610BD2DE9F04F03464FF43A
S31500000120887110208DB09847754B1860002800F034
S31500000130E18084460B20734A734910607348744CFF
S3150000014010647448916050647348946310657348F2
S315000001500B465065DFF8E4A17149724A0CF58870C8
S31500000160E1464FF00008704CCAF800C001900860E4
S3150000017002F5847E18E05168596021609BE803000F
S3150000018085E8030093F83010012906D15169D1E9B9
S31500000190005069684068D96018611832724503F1E9
S315000001A0400304F10C0434D0D2E9020611785778E2
S315000001B0022903F1300502F1100B1F7083F82D8020
S315000001C019759E61986027726060D4D1DBE90001E1
S315000001D0556803F1300765445D6087E8030093F8CE
S315000001E030102560012906D15169D1E9007079687E
S315000001F04068D96018613544A94502F118023CBF30
S31500000200A946CAF80050724503F1400304F10C04F4
S31500000210CAD1019B4B4566D3DFF8249104A800F0B0
S31500000220EFFFCC4604AF0FCFACE80F003F4E97E888
S315000002300F008CE80F0004A80297019601F002FB5C
S3150000024004A804464FF0000C09F1200203920FCCDB
S31500000250039CDFF8F0800FC4DFF8ECB0DFF8ECE0C9
S31500000260029B45460FCB674684E80F007046594609
S315000002702F4A019C06F1900A4FEA4C1C59F80C30A3
S31500000280C4E90002C4E90517E7611BB100221D4855
S31500000290984720612434544506D0D5E90402A9695B
S315000002A095F81CC01035E7E7002309EB43139B685C
S315000002B0144C08F110081BB131462046984778B90E
S315000002C0243656450BD098F80C3008F1100809EB87
S315000002D043139B68002BEFD124365645F3D10020FB
S315000002E00DB0BDE8F08F13480DF076FC01200DB07F
S315000002F0BDE8F08F10480DF06FFC0120F0E700BF5D
S315000003004C060020140700208C030020390500004D
S31500000310C9040000C1000000DD000000E900000083
S315000003200C08002000000020900600206C0700202A
S31500000330F4160100E40F0100BC0F010008080020BC
S3150000034050060020B4160100981601006016010040
S31500000350014B9868704700BF14070020024B98684D
S3150000036000F52070704700BF1407002000232DE918
S31500000370F0410B4C0B4D0C4EDFF8308004F190072A
S3150000038006EB431321464046DB6898472434103574
S3150000039018B9BC4201D02B7BF2E7BDE8F08100BF63
S315000003A06C070020B4160100500600201407002038
S315000003B0104A38B50346106898470F4B0F4DD3E9DE
S315000003C00021914218BF5A60D5E900329A420ED0F8
S315000003D0002453F824000DF03DFAD5E9003201342B
S315000003E0D11AB4EBA10FF4D39A4218BF6B60002068
S315000003F038BD00BF4C060020FC0700201008002076
S315000004006FF0604C2DE9F84FD0E900899246A9EBD0
S315000004100802BCEBA20F4FD09310012B1C4638BF2D
S3150000042001241C1906460F4642D2A346A1EB080535
S31500000430A4BBDAF80030002D4BF805300FDCA9EB31
S3150000044007090435B9F1000F5D441DDC4D44B8F1D0
S31500000450000F11D1C6E900B5B460BDE8F88F2A4691
S3150000046041465846A9EB07090DF017FA0435B9F1CC
S31500000470000F5D4408DC4D44404608F0DFFDC6E948
S3150000048000B5B460BDE8F88F284639464A460DF0F7
S31500000490F7F94D44B8F1000FDCD0EDE7644528BF0D
S315000004A06446A400204609F041F983460444C0E7A7
S315000004B0034CA1EB0805F5E7024809F01FFA00BF57
S315000004C0FCFFFF7F38100100174B30B5174A1C6838
S315000004D01268641A94420D4683B013D2012128464D
S315000004E002F030FE04460190A8B11148D0E901138C
S315000004F0994215D00C60436804334360019C204642
S3150000050003B030BD0A46204600211C600DF0DFF91D
S31500000510204603B030BD294606480DF0D7FAF7E766
S3150000052001AAFFF76DFFE9E70C0800200808002084
S3150000053010080020541001002DE9F84F8B4616468E
S31500000540FFF7C2FFA8B12F4F0546D7E90132934204
S3150000055012D003F10804D7F80080C3F800B0586041
S315000005607C60A4EB0804E410013C00203460BDE884
S31500000570F88F0120BDE8F88F6FF07042D7F800A021
S31500000580A3EB0A04B2EBE40F4FEAE40937D04B467B
S31500000590012B38BF012319EB03032DD20BBB994660
S315000005A0984608EB0403002C48F804B05D600BDCA9
S315000005B004F1080308EB0304BAF1000F0DD1C7E9F3
S315000005C00084C7F80890CCE72246514640460DF015
S315000005D064F904F1080308EB0304504608F02EFD05
S315000005E0EDE7934228BF13464FEAC309484609F090
S315000005F09DF880468144D4E7DFF81090F6E702487C
S3150000060009F07CF9FC07002038100100F8FFFF7F95
S3150000061070B50024104B114D1B6811486B60C5F86E
S31500000620C430C5F8F43003F13006C0E900440D4A81
S315000006300D4910338460C5F8AC60C5F8DC3008F0AD
S3150000064085FC0A48074AC0E9004484600849BDE8B9
S31500000650704008F07BBC00BF4C0600200000002064
S31500000660100800204003002009010000FC070020BC
S31500000670F9000000036810B5052B044603DD406849
S3150000068008B108F0DFFC204610BD00BFF0B54FEA08
S31500000690E07EBEF1FF3F08BFB0F1004F00F09B8047
S315000006A010F100404EF1000E410841EACE71554B63
S315000006B04FEA6E0E484203FB0E00A1FB03320244D2
S315000006C053EA020000F094804FF0FF344E481818A9
S315000006D042EB0403002B04DA6FF00042801843F16A
S315000006E000034FF0030C6FF00045C00F40EA4300D3
S315000006F0454C00F15A3000FB0EF6C71701FB0766A2
S31500000700A0FB01323244002AABBF4FF0804626469A
S3150000071000274FF0FF379B1942EB0702002A02DA47
S315000007205B1942F10002DB0F43EA4203C3F10053B7
S3150000073083FB0037002F2CDB13F1804247F10003C7
S31500000740D20F42EA4302B2F1005F58DA0026920065
S3150000075022EA060206F000467240BCF1010C104483
S31500000760C9D1B0F1804F47DAB0F1404FCCBF00237A
S315000007700123C21700185241B0F1004F72F1FF3247
S31500000780C3F1000131DB013B184001F00041484054
S31500000790F0BD1E1967F10007002F334603DA7619FC
S315000007A0334647F10007DE0F46EA4706FF17B20059
S315000007B0B6F1604F4FEA870747EA96774FF0FF3664
S315000007C0C8BF0026B2F1004F77F1FF33B8BF4FF034
S315000007D00042C2DBBCE700244FF0FF314FF08040FF
S315000007E04FF03C3322468E4671E74FF00040F0BD95
S315000007F04FF0804000246AE76FF00040F0BD6FF0D4
S315000008000042AAE7C4C3C3C3010000C0836B0BB197
S315000008102421184710B50CF0EBFF00BF2DE9F04777
S31500000820D1F8108096B0B8F1000F00F006814D693E
S315000008300C46002D00F00181824B06461A6802F034
S31500000840FFFA0746002836D07F4B214630461A6805
S3150000085002F0F6FA814608B37C4B21461A68304608
S3150000086002F026FB7A4B214682461A68304602F091
S3150000087003FB0446002800F09680387823788342EC
S3150000088078D199F800209A4218D00125304673692C
S3150000089070499847284616B0BDE8F08743236E494D
S315000008A07469304600916D4A6D49A0470125284676
S315000008B016B0BDE8F08740236A49F1E74FF0FF33F1
S315000008C029783046C8F820303B46CDE90248CDF8B5
S315000008D004A0CDF8009000F0EBFC05460028E6D118
S315000008E03B78092BE3D1D9F8087057F8042B052A71
S315000008F00A926FDC92000BA839460CF0C1FFA7687C
S3150000090057F8044B052C109456DCA40011A8224677
S3150000091039460CF0B5FF109B022B40F08C800A9BE9
S315000009205A1E7CD4052B41DD0B9B53F82220012354
S315000009300692129A06A8CDE90733099204F09CFBA9
S31500000940011E57DD3046336C08F1200298470446F5
S31500000950002854D1109B052B03DD119808B108F02F
S3150000096071FB0A9B052BA2DD0B9800289FD008F08F
S3150000097069FB9CE7776902F0AFFB034620781C46CB
S3150000098002F0AAFB84460125374B30460193374BCC
S31500000990CDE9024C0093314A49233549B8472846E8
S315000009A016B0BDE8F0874723324979E716AB03EB6B
S315000009B0820252F82C2CBAE76FF060439C423FDA71
S315000009C0A400204608F0C3FE109B1190052BD8BF4B
S315000009D011A89CE76FF060439A422ADA920010460B
S315000009E0059208F0B4FE0A9B0B90052B059AD8BF1A
S315000009F00BA881E74FF0FF33C8F82030AAE7109B19
S31500000A00052B03DD119808B108F01CFB0A9B052B8A
S31500000A1003DD0B9808B108F015FB254647E70CF0F7
S31500000A20E7FE10A8FFF726FE0AA8FFF723FE08F048
S31500000A300BFB08F0C4FB0CF0DBFE0CF0D9FEF3E771
S31500000A4008F0BDFBB81A0100C01A0100B41A010073
S31500000A50BC1A0100EC1701008C17010014170100E5
S31500000A606017010078170100D0170100E017010098
S31500000A70B4170100A01701002DE9F04FB5B0DDF85D
S31500000A80FC9082460C4622A849461D46904600F038
S31500000A9047FC229B022B40F0B580DDE923B62946B0
S31500000AA028A800F03DFC289B5A1E00F1BB80052BB0
S31500000AB040F39980299B53F8227041462EA800F0F6
S31500000AC02FFC01230021CDE90E33CDE91233CDE908
S31500000AD01533CDE91A3362691793A36852422093FE
S31500000AE0E3681D92A2692193236852421E920993DC
S31500000AF0E2696368CDE91077CDE90B11CDF834B022
S31500000B00CDF864B0149618961C961F920A93216A23
S31500000B10002904DB5046DAF8443098470B90B8F1C8
S31500000B20000F75D0D8F80030002D6FD03E992A6896
S31500000B30002969D03E990968B9F1000F5BD0D9F850
S31500000B40000019AF15AE11AC069004910292009305
S31500000B500597039601940DAB09AA1DA90BA804F0ED
S31500000B6051FA002845D03E992A68D8F8003009681D
S31500000B70DAF81450B9F1000F01D0D9F80090CDE998
S31500000B800361CDE901420093CDE905790DAB09AAD0
S31500000B901DA90BA804F036FA03460293002303931B
S31500000BA0214B50460193214B214A00932149A6230C
S31500000BB0A84701242E9B052B03DD2F9808B108F0CA
S31500000BC041FA289B052B03DD299808B108F03AFA6B
S31500000BD0229B052B03DD239808B108F033FA204643
S31500000BE035B0BDE8F08F34AB03EB820252F82C7CB3
S31500000BF063E70446DEE74846A3E722A8FFF73AFD87
S31500000C0008F022FA0CF0F4FD0CF0F2FD0CF0F0FD09
S31500000C100CF0EEFD2EA8FFF72DFD28A8FFF72AFD04
S31500000C20EBE7FAE70CF0E4FD8418010098180100E0
S31500000C3014170100681801002DE9F04F2DED048B03
S31500000C40D1F81490B3B0B9F1000F00F0B6829F4B03
S31500000C5005461A68002800F0B0820B680F4603EBC1
S31500000C6082035968436D9847994A3B6812688046E3
S31500000C7003EB8203596828466B6D9847954B0646E9
S31500000C801A683B68284603EB820359686B6D9847E0
S31500000C90914B04461A687B68284603EB8203596821
S31500000CA06B6D984739690890002900F0868298F89C
S31500000CB00800032814D0092800F0F981012800F063
S31500000CC011816C6902F008FA98F8083002468349E7
S31500000CD02846A047012033B0BDEC048BBDE8F08F59
S31500000CE028A800F0B1FA10AB1846414608EE103AB3
S31500000CF000F016FB16AB3146184608EE903AD8F8C7
S31500000D00009000F00DFB002E00F05A823368214659
S31500000D100F931CAB184609EE103A00F001FB002CAD
S31500000D2000F059822368089C069322AB2146184698
S31500000D3009EE903A00F0F4FA0CB1236808932A9B66
S31500000D40169E07932D9B012E04932E9BDDE928E426
S31500000D500B93DDE92BA740F341822299002940F34A
S31500000D603F82049B0B9A934200F3248201230020C6
S31500000D70A4460529C8BF239D01F1FF32D8BF23AD84
S31500000D80904218BF55F8204000F1010018BF634398
S31500000D908142F5D1052E64460E93A6F1020000F3BA
S31500000DA0958132AB03EB800050F86C3C05290C931F
S31500000DB040F39381239B53F822300C9A9A4240F0D9
S31500000DC00282052E06F1FF3240F3BD81179B53F8D0
S31500000DD022800E9B002B74DD002FC7F10002D8BFC6
S31500000DE0114627EAE772C8BF00210A9201220020B5
S31500000DF08A40013A089B08925210CDF8149003914C
S31500000E000D90099209EB080C0C9A002A40F399817F
S31500000E101D460C9B069F0F9E05EB0309B8F1000FBC
S31500000E2040F38A810021059806F1FF3B10F8012B5B
S31500000E301BF8013F72442344604502FB0311F5D1C0
S31500000E40069B0BB13B6819440A9B99408A4500F002
S31500000E504C818AFB01210029C0F26A8112F180428D
S31500000E6041F10001D20F42EA4101039B1F2B00F31F
S31500000E708581089B039801EA0302099B03EBD17362
S31500000E8001419A42C8BF0131079B1944049B8B421A
S31500000E9000F329810B9B9942A8BF194605F8011B4F
S31500000EA04D454B4607F104074644B7D105990D9ABF
S31500000EB0414405910E99013291420D92C444A3D149
S31500000EC02299052940F3D880D2E000BFB81A010064
S31500000ED0C01A0100B41A0100BC1A0100981A0100D8
S31500000EE00000000099F8001028A800F0C1F910AB26
S31500000EF01846414608EE103A00F012FAD8F80030CB
S31500000F003146069316AB184608EE903A00F008FAFA
S31500000F10002E00F067811CAB2146184609EE103AF8
S31500000F20376800F0FDF9002C00F05F812668089C08
S31500000F3022AB2146184609EE903A00F0F1F90CB1C1
S31500000F4023680893229BDDED2F6A5A1E9DED306AB9
S31500000F501699079300F12C81079B052B00F3B480AB
S31500000F60079B002B40F3088123AC01230020DDF80A
S31500000F701CC0824218BF54F8205000F1010018BF6F
S31500000F806B438445F5D1881E049300F1228105291F
S31500000F9040F3E580179B53F820300393079B052BFE
S31500000FA040F3D780239B53F82230039A9A4240F0AD
S31500000FB00E814A1E00F10981052940F3D780179B4F
S31500000FC053F82200049B002B4FDD4FF0000C1FED61
S31500000FD03C5AE246E146039B9A000592089A02EBC8
S31500000FE0830E039B002B40F3A98031460022069C0A
S31500000FF0089B00EB0C0B03EB8A0304EB8C0C04EB55
S315000010008B0800281FED4A7A0ADD644607EB820545
S31500001010F4EC015AF5EC017A4445A5EEA77AF7D12E
S31500001020002E00F08280D1ED007A77EE877AF4EE1A
S31500001030676AF1EE10FA76FEA77AB4EE676AF1EE09
S3150000104010FA48BFF0EE467AE3EC017A9E4501F1CC
S3150000105004010244D5D1059B09F101099E44039B75
S31500001060DC469A44049B9945BBD1079B052B03DDBF
S31500001070239808B107F0E6FF1C9B052B03DD1D989E
S3150000108008B107F0DFFF169B052B03DD179808B1A3
S3150000109007F0D8FF109B052B03DD119808B107F068
S315000010A0D1FF002033B0BDEC048BBDE8F08F089B68
S315000010B042460193284633460094FFF7DDFC33B0E1
S315000010C0BDEC048BBDE8F08F239C4EE7179B0529EA
S315000010D053F820300C933FF76DAE32AB03EB820230
S315000010E052F83C3C69E60499D8E68AFB0A210029B5
S315000010F0ACBF00204FF0FF303D4BA8BF4FF0804300
S31500001100BAF1004F08BF6FF000413FF4AEAED318FE
S3150000111040EB0101002904DA6FF000429B1841F10F
S315000011200001DB0F43EA41019FE6F0EE457A7CE7DA
S315000011304FF0FF302E4BEAE7002181E60CEB000B67
S3150000114089E71344B2E632AB03EB820252F86C8CA9
S315000011503FE632AB03EB820252F83C3C25E732AB6A
S3150000116003EB800050F86C3C039317E732AB03EBBC
S31500001170820252F86C0C25E7012304E740F267115E
S315000011801C4B1D4A1D4807F08FFD18EE100AFFF78D
S3150000119071FA07F059FF19EE900AFFF76BFA19EE8C
S315000011A0100AFFF767FA18EE900AFFF763FAECE702
S315000011B00CF01EFB0CF01CFBEDE70CF019FBE4E752
S315000011C00CF016FBEFE70CF013FB0CF011FB0CF028
S315000011D00FFB0CF00DFB0CF00BFBE0E70CF008FB33
S315000011E00CF006FB0CF004FBDDE70CF001FBD6E788
S315000011F0010000C0BC190100CC190100281A010029
S315000012000D4B002210B584469E4604460B495A6093
S3150000121019600B49C3E9042299600A49C3E9062209
S31500001220D960BEE80F00ACE80F009EE80F008CE81E
S315000012300F00204610BD00BF1C0800200D0800004E
S315000012401D080000390C000030B4D1E905426442A3
S315000012505242C0E90042CC690A68C0E90242D1E9BB
S315000012600154CA68C0E9045430BC8261704700BFAB
S31500001270012911D003290AD002290BBF4FF07E5352
S315000012806FF40002074A084BC261036270470022EE
S31500001290064BC261036270470022034BC2610362C0
S315000012A0704700BF000080BFFFFF7F7F0000C04087
S315000012B0F0B5012A85B00D9E02D1002005B0F0BD23
S315000012C01C469FED157B0C9B0F46009302AB0193CA
S315000012D02146DDE90A2305468DED027B01F004FE79
S315000012E00028EBD19DED020B3046311D01F0FCFCD0
S315000012F00A9B22691B693946C6E905230C9B2846C9
S315000013001A6906F10C03F26100930C9A06F10803C0
S3150000131001F06AFE05B0F0BD00000000000000000C
S3150000132030B5044683B071B14D6865B155F8042BEC
S31500001330052A02600CDC9200201D29460CF0A0FA5A
S31500001340204603B030BD00232046236003B030BDE5
S315000013506FF060439A420ADA92001046019208F052
S31500001360F6F92368019A052B6060E6DCE4E707F0EE
S3150000137026FF00BF4FF0804100220B4600F180504F
S31500001380C0FB0032002AF0B504DA6FF000415B18AA
S3150000139042F100024FEAE27ED90F41EA420100FB28
S315000013A00EF2C31701FB0323A0FB016501FB0EF739
S315000013B0A1FB012E1D44384B002DABBF4FF0804CD6
S315000013C09C4600244FF0FF3412F180424EEB470E4C
S315000013D0BEF1000F04DA6FF00043D2184EF1000E92
S315000013E0D20F42EA4E02002AACBF01270227931011
S315000013F002F0030EBE45D4BF1A465A1C1CEB060368
S3150000140044EB0504002C05DA6FF0004C13EB0C03DB
S3150000141044F10004DB0F43EA4403204C134483FBEE
S315000014200432002A1C4CA6BF4FF0804400254FF022
S31500001430FF351B1942EB0502002A04DA6FF000445F
S315000014401B1942F10002DB0F43EA42030B4403F08F
S315000014500102002BA8BF02EB63031BDB104A034407
S3150000146083FB0232002A0C49A6BF4FF080410020C0
S315000014704FF0FF305B1842EB0002002A04DA6FF0EF
S3150000148000415B1842F100020548DB0F43EA4203C4
S315000014901844F0BD5B10E1E7010000C0ABAAAA2A20
S315000014A094A8F5702DE9F04F0C688346002C8DB09A
S315000014B004F1FF3624DD00279846384603F1040E72
S315000014C001F1040C864215D0052CC8BF4B68D8F82C
S315000014D00050CCBFDB595CF82030854240F3A58133
S315000014E0052DCABFD8F804505EF82050ED599D422C
S315000014F040F09B810130844207F10407E2D1434664
S31500001500002EC0F29281052C40F3C3804F6801255E
S3150000151000209C46864218BF57F8203000F1010093
S3150000152018BF5D438442F5D1052C63460A9540F306
S31500001530B780496851F82610059119688E4280F2E5
S3150000154074810529CBBF5B6803EB860353F826300D
S315000015505B6805998B4240F068810A9B002B40F33B
S3150000156048814B000B93169B023B03EB4109039307
S315000015700023CA460893931E029302EB4103049389
S31500001580059B002B40F33881029BA948049902333E
S3150000159033F9022B9042B8BF10468B42F8D1DDE9F1
S315000015A00274DBF80C304FF0010C002BC3F100067F
S315000015B0C8BF00260CFA06FC0CF1FF3C0025DBF840
S315000015C0081023EAE37E4FEA6C08CDF804C038E041
S315000015D081FB02C2002A79DB1CF1804342F1000242
S315000015E0DB0F43EA42031F2E00F31681019A08EB34
S315000015F0D37C02EA03093341E145C8BF013303F551
S31500001600FF437F3313F5004F4FDBB3F5004F4DDB40
S315000016107F234FF4806240F2FE3CDBF8289039F8D5
S315000016200CC039F80220A2EB0C0212B202FB03F343
S3150000163040330CEBE3131BB224F8023F54451D4420
S3150000164048D037F9022F121A02FA0EF28A42BFD197
S3150000165081FB01C2002A774BA6BF4FF000094FF06D
S3150000166080434FF0FF39B1F1004F08BF6FF00043E0
S31500001670B9D01CEB030342EB090CBCF1000F04DAF2
S315000016806FF000429B184CF1000CDB0F43EA4C0351
S31500001690A9E7002C01F104073FF739AF01200A90B2
S315000016A001EB86014968059147E7614B43F3C81290
S315000016B092B202F5807C02F201121FFA8CFC92B201
S315000016C003F07F034FEA4C0C5200A6E74FF0FF39B8
S315000016D0584BCEE7002D00F08F80B5FA85F0E9175C
S315000016E0431EA0F121049940024605FA04F4C0F114
S315000016F0210005FA03F3214325FA00F013F5005300
S3150000170041EA000141F100019B0B43EA8143A3F545
S31500001710C03313F5004FC0F28680B3F5004F6DDB82
S315000017207F234FF4806140F2FE34DBF82C0030F862
S3150000173004C0415AA1EB0C0109B201FB03F340338B
S315000017400CEBE31C059B0FFA8CFC002B3FDD4FF0E6
S31500001750010EC2F11F02D2B2039C531E0EFA03FE03
S3150000176026464FEAEE79C2F12008CDF804A0CDF85E
S3150000177024B009E0B3F5004F1EDB47F6FF7326F8E9
S31500001780023F019BA3421DD07046494634F8023FF2
S31500001790B2F12005C3FB8C0101FA08F720FA02F327
S315000017A043EA07035CBF41FA05F52B43002BF246DB
S315000017B0CB461946DEDA00210BB226F8023F019B22
S315000017C0A342E1D1CDE906AB9A46DDF824B00B9BE6
S315000017D00399089A1944039102999A44194402916B
S315000017E00499013219440A9B08929A4204917FF4A3
S315000017F0C7AE0DB0BDE8F08F20220D4B43F3C811E4
S3150000180089B201F5807401F20111A4B289B203F024
S315000018107F036400490088E740F26711064B074AD8
S31500001820074807F041FA024BE8E70BF0E1FF00BF7B
S315000018300080FFFF010000C0BC190100CC190100A7
S31500001840281A010010B58646F446054C0FCCACE8C4
S315000018500F0094E80F008CE80F00704610BD00BF23
S31500001860D41A010070B540F07F4504466801FFF7C1
S3150000187081FD291B874D884A80FB0556002EA6BF91
S315000018804FF0804200234FF0FF33521943EB060519
S31500001890002DC1F3006C41F3006E04DA6FF00043D3
S315000018A0D21845F10005D20F42EA45020CF1FF3C81
S315000018B00EEA02020CEA0000784E504080FB06E673
S315000018C0754A002EB3BF13464FF0804300224FF0F7
S315000018D0FF3213EB0E0342EB060EBEF1000FC1F30F
S315000018E0406C41F3406504DA6FF000429B184EF1FC
S315000018F0000EDB0F43EA4E030CF1FF3C0CEA00003E
S315000019002B40674E434083FB06E66348002EB3BF79
S3150000191002464FF0804200204FF0FF3012EB0E02DD
S3150000192040EB060EBEF1000FC1F3806C41F38065FB
S3150000193004DA6FF0004012184EF1000ED20F42EAA0
S315000019404E020CF1FF3C2A400CEA0303554E53406D
S3150000195083FB06E65048002EB3BF02464FF0804296
S3150000196000204FF0FF3012EB0E0240EB060EBEF1E8
S31500001970000FC1F3C06C41F3C06504DA6FF000409C
S3150000198012184EF1000ED20F42EA4E020CF1FF3C45
S315000019902A400CEA0303444E534083FB06E63E48C6
S315000019A0002EB3BF02464FF0804200204FF0FF30BA
S315000019B012EB0E0240EB060EBEF1000FC1F3007CE7
S315000019C041F3007504DA6FF0004012184EF1000E74
S315000019D0D20F42EA4E020CF1FF3C2A400CEA030306
S315000019E0324D534083FB055C2B48BCF1000FB3BF5F
S315000019F002464FF0804200204FF0FF30521940EB74
S31500001A000C05002DC1F3407E41F3407605DA6FF0F8
S31500001A10004C12EB0C0245F100054FEAD27C4CEA71
S31500001A20450C0EF1FF3E0EEA030306EA0C0C8CEAA7
S31500001A30030CF223C1F3807541F380708CFB03E144
S31500001A40154A0029B3BF13464FF0804300224FF0DA
S31500001A50FF32B4FA84F413EB0E0342EB010EBEF12F
S31500001A60000F4FEA541404DA6FF000429B184EF14F
S31500001A70000EDB0F43EA4E03013D184005EA0C0C4D
S31500001A80631E80EA0C006442184024F00044604063
S31500001A9070BD00BF7BBEAF63010000C0F2CBA24D9C
S31500001AA06CAC162FA4AA5211B72A580211FE0A00CE
S31500001AB02DE9F04FD0E902B50C688BB0002CD0F8B8
S31500001AC01880009504F1FF3620DD0025284603F135
S31500001AD0040E01F1040C864213D0052CCABF4F68D0
S31500001AE05CF8209057F805901F68874240F39E8166
S31500001AF0052FCABF5F685EF820707F594F4540F0DA
S31500001B0095810130844205F10405E4D1002EC0F22E
S31500001B108D81052C40F3F6804F68012000259C46F8
S31500001B20AE4218BF57F8253005F1010518BF5843D6
S31500001B30AC42F5D1052C6346099040F3EA8049682A
S31500001B4051F826A019688E4280F270810529CBBF14
S31500001B505B6803EB860353F826305B68534540F019
S31500001B606581099B002B40F3CA80002314990192DA
S31500001B7049420593069102EB0A060793BAF1000F54
S31500001B8040F348810024019B13F8012B944238BF8F
S31500001B9014469E42F8D14FF00009234640F2FF75E5
S31500001BA04C46019F994601E0BE4226D017F8013BFC
S31500001BB0A3EB09039845F7DC009A93409B4500F098
S31500001BC0AD808BFB03310029C0F20D8113F18040FB
S31500001BD041F10003C00F40EA4300FFF743FE00282F
S31500001BE0ACBF2B464FF40063C0F30B0100139942C0
S31500001BF0C8BF0130BE420444D8D14B46A1461C465C
S31500001C00B9F1000F00F0FC80B9FA89F509FA05F080
S31500001C1000F10040FEF73AFD01238146C5F123029B
S31500001C209340013B03935B100493019B05985F1E51
S31500001C30149B08960021069E1D1804E029700135A4
S31500001C40AB19534548DA17F8010F001B8045F5DC40
S31500001C50009B9840834500F0A38080FB0BC00028C2
S31500001C60C0F2CA801CF1804C40F1000E4FEADC70D5
S31500001C7040EA4E000292FFF7F5FD81454FF0000164
S31500001C80029A71D080FB090CBCF1000FC0F2B08043
S31500001C9010F180404CF1000CC00F40EA4C0C1F2A9A
S31500001CA000F3BD80039B03EA0C00049B03EBDC738B
S31500001CB04CFA02FC9842C8BF0CF1010CBCF1FF0FB4
S31500001CC04DDCBCF1000F4CDA4FF0000C85F800C07B
S31500001CD00135AB195345B6DB089E069A079BA2EB66
S31500001CE00A020692019A013352440192059A079319
S31500001CF052440592099A564493427FF43FAF0BB083
S31500001D00BDE8F08F002C01F104073FF706AF012074
S31500001D10099001EB8601D1F804A013E78BFB0B3188
S31500001D20434A0029ABBF00204FF0FF304FF0804CF4
S31500001D309446BBF1004F08BF6FF000403FF44DAF33
S31500001D401CEB030340EB0100002804DA6FF00041AE
S31500001D505B1840F10000DB0F43EA40003DE74FF01F
S31500001D60FF0C5FFA8CFCB1E7B9F1004F89FB090C57
S31500001D7008BF6FF0004C92D04FF080434FF0000E3A
S31500001D80C3184CEB0E0EBEF1000F04DA6FF00040E4
S31500001D901B184EF1000E4FEAD37C4CEA4E0C7EE740
S31500001DA08BFB0BC00028ACBF4FF0000E4FF0FF3E80
S31500001DB01F4BA8BF4FF08043BBF1004F08BF6FF029
S31500001DC000403FF457AF1CEB030340EB0E0EBEF191
S31500001DD0000F04DA6FF000401B184EF1000ED80F0A
S31500001DE040EA4E0046E74FF0FF30DFF844C0A7E771
S31500001DF04FF0FF3E0E4BC3E74FF0FF3E0C4BE2E7C2
S31500001E004FF00040FEF742FC03220723814603936E
S31500001E1004920AE74FF00040FEF738FC5DE740F217
S31500001E206711044B044A054806F03EFF0BF0E0FC40
S31500001E30010000C0BC190100CC190100281A0100DC
S31500001E402DE9F04FD0E902950C688BB0002CD0F844
S31500001E5018B0019504F1FF3620DD0025284603F170
S31500001E60040E01F1040C864213D0052CCABF4F683C
S31500001E705CF8208057F805801F68874240F3A481EC
S31500001E80052FCABF5F685EF820707F59474540F04E
S31500001E909B810130844205F10405E4D1002EC0F295
S31500001EA09381052C40F3FA804F68012000259C465B
S31500001EB0AE4218BF57F8253005F1010518BF584343
S31500001EC0AC42F5D1052C6346099040F3EE80496893
S31500001ED051F826A019688E4280F276810529CBBF7B
S31500001EE05B6803EB860353F826305B68534540F086
S31500001EF06B81099B002B40F3CE8000230292069350
S31500001F0002EB0A070793BAF1000F40F351816FF015
S31500001F107F04029B13F9012B9442B8BF14469F42DB
S31500001F20F8D14FF00008234640F2FF754446029E62
S31500001F30984601E0B74226D016F9013BA3EB080309
S31500001F409B45F7DC019A9340994500F0B38089FBE5
S31500001F5003310029C0F2138113F1804041F10003DF
S31500001F60C00F40EA4300FFF77DFC0028ACBF2B46BC
S31500001F704FF40063C0F30B0100139942C8BF013050
S31500001F80B7420444D8D14346A0461C46B8F1000FD8
S31500001F9000F00281B8FA88F508FA05F000F1004071
S31500001FA0FEF774FB01230246C5F11B018B40013B82
S31500001FB004935B100593029B069803F1FF38149B6C
S31500001FC008970026574603EB4005A246144607E04D
S31500001FD048F200030136BE422B8005F102054ADABB
S31500001FE018F9010FA0EB0A008345F1DC019B98402C
S31500001FF0814500F0A18080FB09C00028C0F2C8809E
S315000020001CF1804C40F1000E4FEADC7040EA4E00B5
S315000020100391FFF727FC8442039971D080FB040CDF
S31500002020BCF1000FC0F2B08010F180404CF1000C02
S31500002030C00F40EA4C0C0029C0F2BF80049B03EAA3
S315000020400C00059B03EBDC724CFA01FC9042C8BF06
S315000020500CF1010CACF5004CBCF5004F4BDA1CF54D
S31500002060004F4ADADFF874C10136BE42A5F800C057
S3150000207005F10205B4DBBA46089F029A079B524453
S315000020800292069A013352440692099A07939342A2
S3150000209057447FF438AF0BB0BDE8F08F002C01F148
S315000020A004073FF702AF0120099001EB8601D1F842
S315000020B004A00FE789FB0931444A0029ABBF002081
S315000020C04FF0FF304FF0804C9446B9F1004F08BFF7
S315000020D06FF000403FF447AF1CEB030340EB0100F9
S315000020E0002804DA6FF000415B1840F10000DB0FB6
S315000020F043EA400037E747F6FF7C0FFA8CFCB3E76C
S31500002100B4F1004F84FB040C08BF6FF0004C92D072
S315000021104FF080424FF0000E12184CEB0E0EBEF13F
S31500002120000F04DA6FF0004012184EF1000E4FEA6D
S31500002130D27C4CEA4E0C7EE789FB09C0234B002873
S31500002140ABBF4FF080421A464FF0000E4FF0FF3EF5
S31500002150B9F1004F08BF6FF000403FF459AF1CEBD8
S31500002160020240EB0E0EBEF1000F04DA6FF00040E3
S3150000217012184EF1000ED00F40EA4E0048E74FF01D
S31500002180FF30DFF848C0A7E74FF0FF3E0F4AC3E72E
S315000021904FF0FF3E0D4AE2E74FF00040FEF776FAB9
S315000021A04FF0FF336FF0040102460593049302E7F4
S315000021B04FF00040FEF76AFA5FE74FF4B371044B45
S315000021C0044A054806F070FD0BF012FB010000C042
S315000021D0C41A0100CC190100281A01000080FFFF73
S315000021E02DE9F04F2DED048BA3B0002800F00E82F0
S315000021F00C46002900F00A820A68436D51680646BB
S31500002200984762680746736D304651689847246957
S315000022100590002C00F0FA810FCC14AD97F808E079
S315000022200FC50FCC0FC50FCC0FC50EF1FF3C94E8C0
S31500002230030085E80300BCF1080F79D8DFE80CF04D
S3150000224087780578787805780500BEF1030F00F0E9
S315000022507781BEF1090F40F03F81059B1B7A072B62
S3150000226000F0888108AD394628460EACFFF758F8CD
S3150000227020460599FFF754F8089A002A02F1FF3024
S315000022801FDDDDE90E1E00238446DDF824809C4513
S3150000229013D0052AD6BF05EB830058F82300406803
S315000022A0994240F3A7810529D6BF04EB83065EF861
S315000022B023607668B04240F09B8101339A42E6D1B2
S315000022C060460028C0F29981052A00F35181002A50
S315000022D040F36B8109AE01210023A446984218BF42
S315000022E056F8234003F1010318BF61439A42F5D122
S315000022F0052A644640F35A81099B53F820200E9B19
S31500002300984280F25B81052B40F349810F9B53F87D
S3150000231020309A4240F05081059B38681B68029332
S315000023201A9B0193179B0093169B01F049FEBDE093
S315000023307046746900F0D0FE3B7A0246B4493046D6
S31500002340A047012023B0BDEC048BBDE8F08F08AD9B
S3150000235039462846FEF7E4FF059E3A680EAC31463C
S3150000236020460692FEF7DCFF0EB133680593089A05
S31500002370002A02F1FF311DDDDDE90E0C0023DDF838
S3150000238024E0994213D0052AD6BF05EB83065EF8F2
S3150000239023707768984240F333810528D6BF04EB53
S315000023A083065CF823607668B74240F02B810133E0
S315000023B09A42E6D10029C0F22781052A00F38A80D5
S315000023C0002A40F3B48009AE4FF0010A0023994277
S315000023D018BF56F8230003F1010318BF00FB0AFAE1
S315000023E09A42F4D1052A40F3A480099B53F8213080
S315000023F004930E9B994280F2F480052B40F3918062
S315000024000F9A52F821200499914240F0E880BAF1DF
S31500002410000F4CDD0027049B05999A0001EB83060B
S315000024200699CDF81CA001EB8309B8469346CA4627
S31500002430049B002B31DD069B9FED768A03EB870517
S315000024402A46BC00F2EC017AF4EE487AF1EE10FA74
S3150000245037FE888A9245F5D1059B9FED6F9A1C44FD
S31500002460A146DDE9140109F09DFFF5EC018A07EEAE
S31500002470900A38EEC80A27EE800A07F089FDAA45B9
S31500002480A9EC010A39EE009AEBD194ED007AC7EE79
S31500002490097AE4EC017AA642F7D1049B08F1010817
S315000024A01F44079B5E449845DA44C1D10E9B052B19
S315000024B003DD0F9808B106F0C5FD089B052B03DD6B
S315000024C0099808B106F0BEFD002023B0BDEC048BD0
S315000024D0BDE8F08F099E77E70EAC39462046FEF739
S315000024E01FFF3E68059F08AD39462846FEF718FFD0
S315000024F00FB13B680593059B3246009321462B4658
S3150000250014A8FEF7CFFF089B052B03DD099808B139
S3150000251006F098FD0E9B052BD6DD0F980028D1D12D
S31500002520D2E722AA02EB810151F84C2C6BE74FF05F
S31500002530010A22AB03EB810353F8643C049358E78A
S315000025400EAC39462046FEF7EBFE3E68059F08AD09
S3150000255039462846FEF7E4FE0FB13B680593059B16
S315000025603246009321462B4614A8FFF7A1FACAE784
S31500002570099EB0E60EAC39462046FEF7D1FE3E680F
S31500002580059F08AD39462846FEF7CAFE3B68324627
S31500002590009321462B4614A8FFF752FCB3E722AB63
S315000025A003EB800050F84C3CB3E6012122AB03EB71
S315000025B0800353F8642CA2E60BF01AF90BF018F915
S315000025C02846FEF757F82046FEF754F806F03CFD7D
S315000025D0F9E72846FEF74EF806F036FDF9E70BF068
S315000025E007F90BF005F92046FEF744F8F1E7E7E7AF
S315000025F00BF0FEF80BF0FCF8E5E70BF0F9F8F2E764
S315000026000BF0F6F80BF0F4F80BF0F2F80BF0F0F82C
S31500002610981A0100FFFF7FFF00000000D0E7D2E715
S31500002620836B0BB13821184710B50BF0E1F800BFEA
S315000026302DE9F04F2DED0C8B0B6806461A6889B014
S31500002640012A11D00125A14B4469CDE90132A04AE6
S315000026505D2300929F49A04A0395A047284609B0EA
S31500002660BDEC0C8BBDE8F08F4B680C461F68012F44
S3150000267011D01546954B99494469CDE902720193EB
S3150000268000915E23944A9349A047284609B0BDECC1
S315000026900C8BBDE8F08F002200F0D2FB80460028AC
S315000026A053D083681B68002B29DD00222146304663
S315000026B000F0E2FB8246002867D0D4F81090B9F10A
S315000026C0000F77D098F80050072D27D09AF8000011
S315000026D007283DD0A8424AD1092D646900F0D4816B
S315000026E0012D40F0E3819AF80000012840F0F781BF
S315000026F0206809F027FB0025C9E90001AEE7612340
S31500002700774A3D463046746976490092724AA04738
S31500002710284609B0BDEC0C8BBDE8F08F40F20241B3
S315000027203046B36B9847002800F0BD81C9F82800F1
S3150000273040F202413046B36B9847002800F0CC8146
S3150000274098F80050C9F82C00C0E76023664AD8E71D
S31500002750092D00F08581072D1AD075236349746908
S31500002760304600915C4A5F49A047012576E7604BF9
S31500002770CDE902500193304678235E497469009191
S31500002780554A5449A047012568E763235A4AB8E7E2
S31500002790DAF810508DB1594B0027CDE901357D236C
S315000027A0574A7469304600924A494B4A03970125B5
S315000027B0A04753E76523534AA3E707EE905AD9F893
S315000027C02870F8EEE7DADFED509ABAEE049ADFEDFC
S315000027D04F8ADFED4FAA9FED4FAA9FED4FBAA7F1A3
S315000027E0020B0BE0F4EECB7AF1EE10FA48DD47F679
S315000027F0FF73B5F5007F2BF8023F47D0B0EE49DAFC
S31500002800ADEEA9DA0135B0EE4D0A07F0C1FB07EED1
S31500002810905AF8EEE7DA60EE287AB0EE490AADEEA5
S31500002820A90AF8FE67BA07F0B3FBF0EE40CAB0EEAD
S315000028304D0A07F0ADFBB0EE408A28EE288AB8FEB6
S31500002840488A3DEE2A0A07F0A3FBB6EE00CAACEEB4
S31500002850A88A60EE287A28EE0C8AF8FE677AB8FE17
S31500002860488A78EE677A67EE8C7AF8FE677A7BEEAE
S31500002870E77AF4EECA7AF1EE10FAB3D5F0EE4A7AB8
S31500002880FDEEE77A17EE903A1BB2B2E7DFED237A58
S315000028909FED1E7AB7EE005A47F6FF73D9F82C5013
S315000028A09FED1F3A9FED1B2A9FED1B1ADFED1D1AA8
S315000028B0F0EE673AB0EE456AF0EE474A012240F282
S315000028C00120A7F80034A91E66E000BF781B0100AE
S315000028D03C1B010068180100F41A01004C1B0100A2
S315000028E0601B01006017010078170100D41B01006E
S315000028F0D0170100E0170100A0170100D01A01004F
S31500002900101C01007C1B01000000A03C00000047D9
S315000029100000203C000000C700FEFF46000000004B
S315000029200000003B0000803A000000386F120333BD
S31500002930F4EEC17AF1EE10FA41DD47F6FF7301328B
S31500002940824221F8023F40D007EE902A76EEA16A35
S31500002950B8EEE75AF0EE635A76EE866AE5EE035A6B
S31500002960C6EE267AB8FE477A75EE865A67EEA46AF0
S31500002970C6EE252AF0EE477AB6EE004AE2EEA47AD3
S3150000298067EE847AF8FE666AF8FE677A77EEE67A8C
S3150000299067EE847AF8FE677AF0EE636A77EE677A16
S315000029A0E5EE036AF4EEC27A76EE865AF1EE10FA96
S315000029B086EE257A27EE247ABAD5F0EE427AFDEE37
S315000029C0E77A17EE903A1BB2B9E74FF48043DAED97
S315000029D0037A6469A5F8003498F80050DAF81030E4
S315000029E0092DC9ED087AC9F81C3049D0072D7FF4A6
S315000029F077AE002B40F082801FED357AF4EEC77A71
S31500002A00F1EE10FA5FED376ACCBF37EEC77A37EED4
S31500002A10677AB4EEE67AF1EE10FA00F3B980D8F8E8
S31500002A200C0009F08FF9064620680F4609F08AF96E
S31500002A3002460B463046394609F0DCF98EA3D3E947
S31500002A40002309F001FB09F1080841EC100B404690
S31500002A5007A900F049F9079B0025C9F80C30FDE5E8
S31500002A606469DAF810306E48834200F0AA80CDE936
S31500002A7002306C4A74692B2330466B4901927EE61C
S31500002A809AF800000728EED0092871D1DAF810303C
S31500002A9013F1800F39D065496FF07F07CDE9011337
S31500002AA0614A30237DE66B23614A2AE62846776928
S31500002AB000F012FB04460120054600F00DFB5D4BBD
S31500002AC0844601935C4B304600934E23CDE9024C7D
S31500002AD05A4A5B49B847C1E56F235A4A11E67769F6
S31500002AE000F0FAFA0446284600F0F6FA514B8446FE
S31500002AF00193554B304600934F23E7E75349002790
S31500002B00CDE90113484A25234BE6DFED517A9AEDCC
S31500002B10037AB4EE677AF1EE10FA7ED1D8F80C009B
S31500002B2009F010F90B460246206843EC182B09F011
S31500002B3009F909F1080541EC100BB0EE481AF0EE60
S31500002B40681A2946052007AA00F0EAF807991F2205
S31500002B50C9F80C10052000F031F909F0E1F801F18F
S31500002B600047394609F0F6FB0025C9F8180075E557
S31500002B70776900F0B1FA0446092000F0ADFA354B4A
S31500002B8084460193304B0125009330462F239DE761
S31500002B9000224FF07C5317EE900ACDE9042309F08A
S31500002BA0D1F8804689462C4B304601932B4B234A5D
S31500002BB0009374692623CDE9028929490125A04796
S31500002BC04CE5DFED287A9AED037AB4EEE77AF1EE7A
S31500002BD010FADFED256ACCBF77EE677A77EEC77A13
S31500002BE0F4EEE67AF1EE10FA98DD00221F4B17EEAE
S31500002BF0100ACDE9042309F0A5F8804689461C4B46
S31500002C0030460193154B0D4A009374692C23CDE988
S31500002C10028913490125A04720E5312315499EE580
S31500002C200080FFFF701C0100101C0100901C0100B9
S31500002C30981B0100BC1C0100E0170100F41A0100FA
S31500002C40B4170100B01B0100D0170100D01A010013
S31500002C500000803B841C01004C1C0100581C010034
S31500002C602C1C0100000080376F1283320000F03EFA
S31500002C70781C0100981C0100140014001400243F65
S31500002C8038B541EC100B18461C46154607F038F8C7
S31500002C900022144B51EC100B09F0ACF841EC100B70
S31500002CA007F066F851EC100B09F01CFC4FF0004CD5
S31500002CB00022844572EB010E12DB914208BF60458B
S31500002CC008D0034622681F3202DA00221346226029
S31500002CD02B6038BD22684FF0804301322260F2E754
S31500002CE00AF086FD0000E0412DE9F04155EC104B5D
S31500002CF006460F460022002310EE100A294609F068
S31500002D00E1FA20B1002333603B60BDE8F0813B4629
S31500002D10324620462946BDE8F041FFF7B1BF00BF65
S31500002D202DE9F84F4FF0004323FA00F05BEC10ABAF
S31500002D3059EC118B14460D4608F0F2FF4246064642
S31500002D400F464B465046594609F054F802460B4684
S31500002D503046394609F04EF815A3D3E90023064656
S31500002D600F4609F0D7FAA0B9804639463046002208
S31500002D70114B09F0CFFAC0B1304639460022002384
S31500002D8009F0A0FA40B1C5F80080C4F80080BDE89B
S31500002D90F88F07A7D7E9006723462A463046394603
S31500002DA0FFF76EFF2368002BF1DA0AF021FD00BF62
S31500002DB00000C0FFFFFFDF410000F03F2DE9F843B0
S31500002DC00124074604FA00F0013815460E4608F0BD
S31500002DD0A7FF8046E81B8946C0F12003A0F1200129
S31500002DE024FA03F304FA01F1194304FA00F008F097
S31500002DF0D3FF02460B464046494608F0FBFF024613
S31500002E000B46A6F12005C6F1200104FA05F524FAC1
S31500002E1001F104FA06F0294314461D4608F0BCFFEA
S31500002E2002460B462046294609F00EF941EC100BE6
S31500002E3006F0E2FE51EC100B09F08CFABDE8F883BF
S31500002E400968002A10B451F8044B10DBA2420EDACE
S31500002E5051F8221000290ADB826822B102EB8110A8
S31500002E605DF8044B7047036D5DF8044B184700206E
S31500002E705DF8044B704700BF4968002A10B451F84A
S31500002E80044B10DB94420EDD51F8221000290ADBB8
S31500002E90826822B102EB81105DF8044B7047036D26
S31500002EA05DF8044B184700205DF8044B704700BFDF
S31500002EB00968002A10B451F8044B10DBA2420EDA5E
S31500002EC051F8221000290ADB826822B102EB811038
S31500002ED05DF8044B7047036D5DF8044B18470020FE
S31500002EE05DF8044B704700BF2DE9F0412DED028BD4
S31500002EF082B0054691ED038AD2ED038ADDF828807B
S31500002F007BB318EE100A1C4608F01CFF064618EEA6
S31500002F10900A0F4608F016FF02460B463046394621
S31500002F2008F068FF0646E0680F4608F00BFF0B4600
S31500002F3002463946304608F0A5FD0246D8F80C0090
S31500002F40164621F0004708F0FDFE02460B463046C5
S31500002F50394609F079F822A3D3E9002309F0C6F926
S31500002F6008B328EE288AB5EEC08AF1EE10FA29DBFE
S31500002F7018EE100A08F0E6FE0446D8F80C000D46D6
S31500002F8008F0E0FE02460B462046294609F05CF8AA
S31500002F9002460B4600200B99C1E9002302B0BDECA6
S31500002FA0028BBDE8F0814FF4A273094928466C698B
S31500002FB0084A00910849A047012002B0BDEC028BE7
S31500002FC0BDE8F08140F251130449EFE7AFF300800A
S31500002FD0101D0100CC1C010060170100341D01000A
S31500002FE07B14AE47E17A943F30B592F800C083B0C7
S31500002FF0BCF1030F3DD0BCF1090F1FD0BCF1070F88
S3150000300011D147F6FF742F4D0129D2ED036A1069DD
S315000030101DD0032930D002294ED01D60069B1C60AE
S31500003020002003B030BD284944694FF4C2730091B3
S31500003030264A2749A047012003B030BD01294FF099
S315000030407F046FF07F05D2ED036A1069E1D19FED31
S31500003050217AC7EE267AF8FE677AFDEEE77A17EE52
S31500003060902A0244AA42B8BF2A461A60069B1C60F0
S31500003070D6E7FF240025C7E7DFED167AB1EE086A2A
S3150000308087EEA67AC6EE267AB8FE477AF8FE677A03
S31500003090BDEEC77AFDEEE77A17EE101A17EE902A04
S315000030A00144A9420244B8BF2946A242A8BF22460B
S315000030B01960069B1A60B3E7FFEE007AB7EE006A66
S315000030C0DEE700BF0080FFFF501D0100CC1C0100A1
S315000030D0601701000000000010289ABF024B53F849
S315000030E020000248704700BFFC1D0100581D01006A
S315000030F0002070470020704700200021704700BF65
S315000031000FB400B5C3B044AB53F8042B4FF4807131
S3150000311002A801930BF03AFC43B05DF804EB04B04F
S31500003120704700BF08B510EE100A08F00BFE024605
S315000031300B460248FFF7E4FF08BD00BF401E010032
S315000031400AF080BB0AF05EBB0AF084BB2DE9F04FA3
S315000031502DED0A8B89B0DDE91C452668D4F804906C
S31500003160039609FB06F7B9F1010F80460E46049255
S3150000317000EBC70700F02E81049A04F1080104460B
S31500003180039802FB03FA02FB00F24FEAC90BCDF8E3
S315000031901490CDF81880894690464FEACA0A3146FF
S315000031A020464246CDE900955C440293FFF7CEFFE8
S315000031B0A742029B5644F2D1DDE90598039B023BE8
S315000031C0032B00F24483DFE813F0250162011102AC
S315000031D006004FF0080B049C05F5847209FB04F306
S315000031E002EBC30202EBC303D2ED003A92ED012AD1
S315000031F0B9F1000F08EB4B0293ED003AD3ED012A2B
S3150000320008EB0B0002EB0B0340F3DF80E6000396AE
S31500003210F1EE421A4FF0000C2F462E460BF1080B2A
S3150000322004EB440E03EB0B0108F1080808300832E2
S3150000323008334FEACE0E4FEA041B4FEA441A0295B2
S31500003240D5ED434A10ED016AD5ED42CA50ED020AAA
S3150000325096ED43CA53ED016A24EEC64A2CEE861A51
S31500003260029C96ED425AD4ED43AAD7ED429AD7ED89
S31500003270435A11ED017AD4ED42BA52ED017AA0EE2D
S31500003280A41AA0EEAC4A6CEE660A13ED02AA12ED81
S3150000329002BAF0EE448A6AEEE74A25EEC74A29EEFC
S315000032A0876A65EE266AB0EE607A6BEEA77A11ED54
S315000032B0029AAAEE057AEAEE0C6AEBEE2B4AEBEEE0
S315000032C02A7AB0EE445AA9EE256AA9EE295A74EE76
S315000032D0C75A77EEE69A18ED028A18ED010A74EEDF
S315000032E0870A65EEC2AA31EE067A22EEA9AA31EE67
S315000032F0461A77EEA67A38EEC54A78EE856AA2EEC9
S3150000330001AA25EEE29AF0EE484AB0EE405AF0EEF7
S31500003310485AB0EE406A61EE628AB0EE6A1AA1EED1
S31500003320849AA2EE841AE3EEA64AA3EE875AE3EE47
S31500003330265AA3EE076AB0EE684AE3EE204AA3EEE9
S31500003340275AA3EEA76A76EEA06A37EE277AE3EE4F
S31500003350A05AA2EE294A77EE007A76EE886A35EE12
S31500003360490A34EECA8A75EE840A36EE017A74EE9C
S315000033708A4A35EE095A75EEC45A36EE416A039CFE
S315000033800CF1010C2544029C083008320833083140
S315000033905C44E14548ED026A48ED017A08F1080807
S315000033A000ED048A00ED030A029441ED044A01EDA2
S315000033B0035A764442ED040A02ED037A574443ED7C
S315000033C0045A03ED036A7FF43BAF09B0BDEC0A8BE8
S315000033D0BDE8F08F02FB03F34FEAC30C00F10803CC
S315000033E01A4696E80300974202E90300664402F192
S315000033F00802F6D1039A023A032A00F2B18101A12A
S3150000340051F822F0193400005B37000055370000F0
S31500003410D331000008F10803049AD10009F1010232
S3150000342008EBC20895ED436A58ED017A95ED425ACC
S3150000343058ED025A26EE677A53ED026AA5EE857AB2
S3150000344076EEC76A65EE277A48ED026AE5EE867A79
S3150000345053ED016A76EEE76A48ED016A13ED026AFA
S3150000346053ED016A36EE077A76EEA77AB9F10109CD
S3150000347003F1080308F108080D4403ED047A43ED4F
S31500003480037ACFD109B0BDEC0A8BBDE8F08F08F105
S3150000349008031C46049BAA46D9000291190103FBA6
S315000034A009F305EBC30595ED43AA0BF1040608EBFA
S315000034B00B0708EB0915464408EB4B0BF1EE4AAA3D
S315000034C0D046039104359AED435ADBED016A98ED37
S315000034D0436ADAED423A98ED424AD7ED017A56ED63
S315000034E0014A55ED015A25EE677A66EE668A63EE65
S315000034F0A77A24EE268AA4EEA37AE4EE857AE5EE90
S31500003500848AA5EE868A029B54F8080C9A44039B8B
S3150000351077EE289A37EE889A77EE688A37EEC88A69
S31500003520984408F00FFC41EC1B0B19EE900A08F0CA
S3150000353009FC0022CD4B08F05DFC02460B4651EC1F
S315000035401B0B08F09FFA08F02DFF083446F8040C10
S3150000355054F80C0C08F0F6FB02460B4619EE100A5E
S3150000356043EC1B2B08F0EEFB0022C04B08F042FC9C
S3150000357002460B4651EC1B0B08F084FA08F012FFCA
S31500003580786014ED047A54ED037A37EE297A77EEF3
S31500003590897A04ED047A44ED037A56ED017AEAEE6F
S315000035A0087A45ED017AD7ED017AEAEEA87ACBEDF5
S315000035B0017A56ED017AEAEE887A46ED017AD7ED80
S315000035C0017AEAEE287AB9F1010907F1080706F14E
S315000035D008060BF1080B05F1080547ED017A7FF4A3
S315000035E072AF09B0BDEC0A8BBDE8F08F08F1080395
S315000035F04E4628460499D5F804E001EB4107FF0042
S315000036004FEAC10C4FEA011906EB460108EB4B02E3
S315000036100BF1040408EBC101029708EB0B05774692
S31500003620444482468046DDF808E09344043121E0B4
S3150000363036EEC65A35EEA77A76EE866A75EEE77AE4
S3150000364004ED015A85ED017A41ED016ACBED017A6F
S31500003650013E03F1080305F10805604402F1080282
S31500003660C8440BF1080BF24404F1080401F1080107
S315000036703FF4ABAE98ED422ADAED424ADAED432A40
S31500003680D5ED017A9BED017AD0ED420A90ED438AA1
S3150000369098ED431AD2ED016A11ED014A14ED010AC3
S315000036A0D2ED001A22EE263A64EE873A20EEA76A99
S315000036B022EEC77A68EE677A61EE666A13ED025A01
S315000036C053ED015AA4EE247AE1EE826AE4EE223A40
S315000036D0A0EE086AE0EE207AA1EE813A76EE854AFF
S315000036E037EE872A33EE254A76EE232A03ED014A82
S315000036F043ED024A34EE624A74EEC24A82ED014A52
S31500003700C2ED004A75EE666A77EEC77A13ED025A85
S3150000371013ED017A35EE025A37EE227A75EEC35A68
S3150000372036EE636A03ED025A03ED017A002F7FF449
S315000037307FAF36EE865A35EEE77A76EEC66A75EED6
S31500003740A77A04ED015A85ED017A41ED016ACBEDC8
S31500003750017A7DE74FF0080B4AE74FF0080B98E631
S31500003760039B4FF0080BDC002B6820460593FFF700
S31500003770E7FC05F58473029303464FF0000E4546B9
S31500003780F246083CE2180792049A09FB02F20692F6
S31500003790039A002A4BDD5446002203EBC20608EBCF
S315000037A0C40103C986E803000399013291424C44DF
S315000037B0F3D1F4462E4600272C1D221F93E8030062
S315000037C082E80300039A012A29D054ED016A96ED96
S315000037D0017A19460022059862448242A8BF121A4D
S315000037E00298D1ED037A00EBC200D0ED005AD0ED7D
S315000037F0014A91ED025A25EEA76A64EEE77AA5EE34
S31500003800246AE5EE257A37EE067A76EEA76A0798F9
S315000038100831814244ED016A86ED017ADBD1069AD0
S3150000382001379444039A5E44BA425C44C5D1049A73
S315000038300AF1010AD14505F108059644A8D11846B2
S3150000384009B0BDEC0A8BBDE8F04FFFF77DBC039BCA
S31500003850DC002B6820460593FFF772FC05F58473A0
S31500003860B9F1000F0293034687DCE8E70000E03F6A
S315000038702DE9F04F2DED028B8A4600F1210183B030
S31500003880C90004460191002B00F01381002A00F0C4
S3150000389018811968019881427FD3154601991960EC
S315000038A0C5E9004ABAF1000F00F0CD80002C40F3C4
S315000038B00C810FF23C29D9E90089204608F030FA3C
S315000038C0AB464FF0000A06460F46504608F028FA67
S315000038D042464B4608F08EFA32463B4608F0B4FBA9
S315000038E041EC100B41EC180B06F032F951EC100BC1
S315000038F008F058FDB0EE480AF0EE680ACBF8080169
S3150000390006F08AFA51EC100B08F04CFD0AF1010A98
S3150000391054450BF1080BCBF80401D6D147EC106BDC
S3150000392006F002FB06F068F94FF004082B4605F195
S31500003930080A57EC106B45469846DFF8BCB194FB75
S31500003940F5F305FB1342F2B1022D39D0042D66D1F1
S3150000395000224FF080433046394608F0BDFC50BB8C
S31500003960E1072DD45246022104EBD4735B10032CDD
S3150000397042F8081BCAF804301BDD9246DA071ED44B
S31500003980022593FBF5F3D146012B49F8085B1C464B
S31500003990CAF804300DDDCA46D1E7002518600E9B33
S315000039A00BB1019A1A60284603B0BDEC028BBDE844
S315000039B0F08F4546F3E7D1462546CA46BFE71C4683
S315000039C0002230463946464B08F086FC0028F2D1E4
S315000039D0444BD1460BFB0433B3F1553F2FD2424B38
S315000039E0052C83FB04234FF00302A3EBE47349F891
S315000039F0082BCAF80430DCDD3A4A0BFB0322B2F18D
S31500003A00553F1BD20325CA4693FBF5F3D146012B3E
S31500003A1049F8085B1C46CAF80430BCDCC9E7023525
S31500003A20284608F07DF9D14602460B46304639460F
S31500003A3008F052FC0028AED02546BEE71C460525F8
S31500003A4000222A4BF2E7002C3FDD0FF28C09D9E960
S31500003A500089204608F064F9AB4606460F465046F4
S31500003A6008F05EF942464B4608F0C4F932463B463A
S31500003A7008F0EAFA41EC100B41EC180B06F068F876
S31500003A8051EC100B08F08EFCB0EE480AF0EE680A16
S31500003A90CBF8080106F0C0F951EC100B08F082FCD7
S31500003AA00AF1010A54450BF1080BCBF80401D6D1F3
S31500003AB034E70846FFF744FB054600283FF46FAF9E
S31500003AC0EEE61546019A1A6069E7204608F028F9DD
S31500003AD006460F4622E700BF182D4454FB2119C0A5
S31500003AE000000840AAAAAA2A5655555500001440B7
S31500003AF0182D4454FB211940ABAAAAAA70B59142CD
S31500003B00044682B00AD0012300F10805CDE900542D
S31500003B1010461A46FFF71AFB02B070BD00680D4644
S31500003B20C000FFF70DFB04F10803CDE900340123C3
S31500003B3006461A462946FFF709FB226828463146FB
S31500003B40D20009F09DFE304602B0BDE87040FFF796
S31500003B50FBBA00BFFFFFFFFF2DE9F04F2DED028BF3
S31500003B60002587B010F00104059540F0B5801F468A
S31500003B70451005AB90462846224600940E46FFF7B0
S31500003B8077FE059B03F10C0905EB450303EBD373A5
S31500003B905B1009EBC3030393002F00F0A7803B687B
S31500003BA0039A9342C0F0A780039B3B60B8F1000FD5
S31500003BB053D00020059908F10C021144C8E90021F0
S31500003BC001EBC501C8F8081005AB00903146284640
S31500003BD005EBD57AFFF74CFE4FEA6A09002E42D074
S31500003BE0012D35DD0FF2301BDBE900AB284608F06E
S31500003BF097F806460F46D8F808500134204608F0D4
S31500003C008FF832463B4608F01FFA0022404B07F079
S31500003C103BFF52465B4608F0EDF841EC100B41ECD9
S31500003C20180B05F095FF51EC100B08F0BBFBB0EE3E
S31500003C30480AF0EE680A286006F0EEF851EC100B20
S31500003C4008F0B0FB4C4505F1080545F8040CD4DB3B
S31500003C50129B13B1129B039A1A60404607B0BDEC43
S31500003C60028BBDE8F08F012DF2DD0FF29C0BDBE934
S31500003C7000AB284608F054F804460D46D8F80870FC
S31500003C800136304608F04CF822462B4608F0DCF99F
S31500003C9000221F4B07F0F8FE52465B4608F0AAF8D2
S31500003CA041EC100B41EC180B05F052FF51EC100BD8
S31500003CB008F078FBB0EE480AF0EE680A386006F0C5
S31500003CC0ABF851EC100B08F06DFB4E4507F10807F9
S31500003CD047F8040CD4DBBBE7A8460E48FFF710FAFA
S31500003CE0404607B0BDEC028BBDE8F08F1846FFF7E3
S31500003CF027FA80465AE7A04640463A6007B0BDEC30
S31500003D00028BBDE8F08F00BF182D4454FB2109C07B
S31500003D100000E03F441E0100182D4454FB210940D9
S31500003D20F0B5064600681446436883B0002B68D198
S31500003D3072680768FFF7E2FE73680022D3ED007A27
S31500003D4093ED017A77EE876A77EEC77A04EBC701BF
S31500003D5007EBD775012FC4ED006A4FEAC70CC1ED1A
S31500003D60007A4FEA650562604A6048DDF6EE005A61
S31500003D704FF0010E2246B46803EB0C0050ED014AE9
S31500003D80D3ED036A93ED026A94ED015A10ED027ABF
S31500003D9094ED004A74EEA67A76EEE46A76EE474A29
S31500003DA037EE067A25EE676A67EE847AA4EE846AB1
S31500003DB0E4EE857A77EE064A37EEA65A37EE467A6D
S31500003DC077EEE67A24EEA56A65EE256A27EE257A71
S31500003DD067EEA57A0EF1010E0839AE4502F108022A
S31500003DE082ED006AC2ED016A03F1080381ED007AF3
S31500003DF0C1ED017AA0F1080004F10804BEDD03B0AC
S31500003E00F0BD03480191FFF77BF9306801998FE710
S31500003E10601E010010B50446006808B1237B0BB98B
S31500003E20204610BDFFF790F9204610BDFEE700BF03
S31500003E30F0B591B0169C4FEA540C0CF1010C9C4560
S31500003E4040F0A9808C4207460E46154627D9012127
S31500003E50A000FFF777F901220494CDE902028DF85C
S31500003E601420002800F09580A64228BF2646394631
S31500003E70B7003A4609F004FD0298A61B0021384413
S31500003E80B20009F024FD202C14D1484C029818B138
S31500003E909DF81430002B72D1204611B0F0BD0028D9
S31500003EA0D5D000220123202C029004948DF81420F2
S31500003EB00393EAD0402C24D0802CE6D0B4F5807F42
S31500003EC0E3D0B4F5007FE0D0B4F5806FDDD0B4F573
S31500003ED0006FDAD0B4F5805FD7D000230AAA00922B
S31500003EE020461A461946029EFFF736FE044600286B
S31500003EF04DD02A463146FFF713FF2046FFF724F937
S31500003F003BE020222A4BADF83840D3E901019C89D9
S31500003F10284B0C910B9001214FF48070ADF8344082
S31500003F200F93ADF82820FFF70DF9012340228DF8F5
S31500003F302430CDE90732069048B3024600230299A1
S31500003F400AA801F0D5FF002206982946034606680E
S31500003F506A602E60466800F1F804C5F80421C5F8C9
S31500003F6000619A6808338A605A689C4201F1080128
S31500003F704A60F6D19DF8243033B9002486E7FFF76E
S31500003F80E3F8204611B0F0BDFFF7DEF8F5E70A4C7E
S31500003F907CE7094C80E7094C7EE706A8FFF73AFF65
S31500003FA002A8FFF737FF05F04FF8F9E708FCFFFF17
S31500003FB0E8200100E81F010016FCFFFF11FCFFFFCF
S31500003FC02DE9F04F9FB000930B1E189002921D939F
S31500003FD040F3858400231C93531EC3180393189A39
S31500003FE0029992F9003001291A9340F319859B46EC
S31500003FF0039912F9013F9B45B8BF9B4691424FFA80
S315000040008BFBF6D1002218990192C1F101020592AB
S31500004010009A8E46D20F1A9B1292CDF810B086E007
S31500004020CB49C0FB0123002B04DA6FF00041521884
S3150000403043F10003D20F002142EA43024FF08043CE
S315000040408846184602F1E242C24EA2F52522A2F2A5
S315000040506C72C2FB0608069DC00F15400A9A40EA1C
S3150000406048000240984608465540BB4A109EC5FB8C
S31500004070028042462E4098460D46D20F42EA400242
S315000040800B98F2271040B54A4640C6FB02854246C9
S315000040900998D20F42EA45022240304050400D4670
S315000040A01A46AF4E079CC0FB06250440D20F0C985B
S315000040B042EA450210400D461A46AA4E4440C4FB49
S315000040C00625D20F42EA45020BEA020B0D461A46B6
S315000040D00E98DFF89CC220408BEA0000C0FB0C253E
S315000040E00F9CD20F0440119842EA450200EA020AE8
S315000040F08AEA040ACAFB07310D9ADB0F0AEA020AAA
S31500004100089A43EA41031A4082EA0A0A4FEA2A3326
S315000041101AF4006F18BF0133019A1A440192059BE5
S31500004120029A73449A4240F325811EF9013F049A8C
S315000041309B1A299A9A42F2DC289A12999340DA0F2E
S315000041408A420CBF00214FF0FF31874A08BF4FF06B
S3150000415080420098C3FB0021002904DA6FF000407A
S31500004160121841F10001D20F42EA4101009A93422E
S3150000417000F0C1804FF080434FF0000C41F07F48C3
S315000041804FEA481000F18050A8EB0108C0FB003C44
S31500004190C8F3006A0AF1FF32C8F3C069069209F152
S315000041A0FF320792BCF1000F48F38072C8F38076A5
S315000041B0089204DA6FF00047DB194CF1000CDB0FB4
S315000041C043EA4C03A3FB03244FEAEC7C03FB0CF706
S315000041D012F1804244EB4704002C1D4604DA6FF0CE
S315000041E00047D21944F10004D20F42EA440200FB10
S315000041F00CFCCAF100040A94C9F100040C94741E64
S315000042000D94C8F34066C41703FB04CC48F340671B
S31500004210C8F38064013EC8F3007BC8F3407A0B976D
S3150000422010964FEAD378661EA0FB037309960BF12E
S31500004230FF3602F003090E9692100AF1FF360F962A
S31500004240002ACAF100066344C4F100044FEAD07C98
S31500004250CBF1000B11964BDB4FF0010ACA45424EDB
S31500004260B8BF0132E0450BBF4FF0804CB4464FF06B
S3150000427000084FF0FF381CEB070C48EB0303002B3C
S3150000428005DA6FF000471CEB070C43F100034FEA19
S31500004290DC7C4CEA430C6244002AACBF00274FF09A
S315000042A0FF37314BA8BF4FF08043304EC2FB063775
S315000042B0002F04DA6FF000429B1847F10007DB0F6E
S315000042C043EA47032B445A1002D4DE0748BF0132A3
S315000042D0254B10440028B3BF1A464FF080420023F6
S315000042E04FF0FF3300297FF49BAE4FF4002313E712
S315000042F04FF0020AB2E7009BB3F1004F00F0CF8304
S315000043004FF080434FF0000C41F07F484FEA4810D1
S3150000431000F18050A8EB0108C0FB003CC8F3006A1E
S315000043200AF1FF32C8F3C069069209F1FF3207921B
S31500004330BCF1000F48F38072C8F380760892BFF68E
S315000043403EAF6FF000429B184CF1000C37E700BF00
S3150000435094A8F5707BBEAF63F2CBA24D6CAC162F62
S31500004360A4AA5211B72A5802010000C0ABAAAA2A71
S3150000437011FE0A000199DDF810B0002900F0D5837E
S31500004380B1FA81F3994001F10041C3F1230313937C
S3150000439011F100434FEAE17141F100015B0843EA84
S315000043A0C1736D4A4910584202FB0100A3FB022467
S315000043B020446A4C121960F10000002804DA6FF0FC
S315000043C00044121940F10000D20F42EA400202F105
S315000043D05A3202FB01F4D01703FB0044A2FB035040
S315000043E015F1804544EB0000ED0F45EA4005C5F1A7
S315000043F00055002D82FB050480F21F83574D40199E
S3150000440064F10004002C04DA6FF00045401944F111
S315000044100004C00F40EA440012EB800240F187839B
S3150000442001264FF0FF374D4D02FB01F4D01703FB79
S315000044300044A2FB030C4019644444EB0707002F19
S3150000444004DA6FF00044001947F10007C00F40EA94
S315000044504700C0F10050C40FB4420CBF00254FF016
S31500004460FF353E4C08BF4FF08044C2FB0045002D8F
S3150000447004DA6FF00040241845F10005E40F44EA21
S315000044804504B4F1005FC0F2C2824FF080440025BB
S3150000449002F10042013A02FB01F1D01703FB0011C1
S315000044A0A2FB03361B19314441EB0505002D04DA46
S315000044B06FF000415B1845F100054FF0FF34DB0F4C
S315000044C043EA45032549C3F1005303FB00F0DD171A
S315000044D002FB0500A3FB02355B18284440EB0404ED
S315000044E0002C04DA6FF000415B1844F10004DB0F86
S315000044F043EA4403B3F1005FC0F279826FF00043F0
S315000045001A44B2F1804FA8BF1293C0F22A83029BCD
S31500004510002B40F3D381129BDDF8A8A0002BB3BF7C
S315000045204FF0FF334FF0804200230C4ACDF810B015
S31500004530CDE915230123189AD3460192009AD20F8A
S315000045401792139A9340013B14935B10199301330E
S315000045501B931A9B90E100BFC4C3C3C3010000C0F4
S31500004560289A17999340DA0F8A42CB4A0BBF4FF02D
S315000045708041114600224FF0FF32009CC3FB04121B
S31500004580002A104604DA6FF00042891840F1000054
S31500004590CA0F009942EA40028B4200F0AC814FF00C
S315000045A08040002742F07F435C019B1A04F180544F
S315000045B0C3F30066C3F34065711EC4FB0407C3F36F
S315000045C080690591691EC3F3C068069109F1FF3140
S315000045D0079108F1FF310891002F43F300710B9505
S315000045E0C3F3807EC3F3007A099104DA6FF00041C9
S315000045F0401847F10007C00F40EA4700FF1700FBCD
S3150000460007F10D46A0FB001C11F180414CEB450C57
S31500004610BCF1000F0A9004DA6FF0004549194CF11D
S31500004620000CB2FA82F20B9D04FB07F76D425209A9
S315000046300B950AF1FF35C90F0D95C8F10005C2F1BA
S31500004640000841EA4C010F954FEAE47C28F000454A
S3150000465000FB0C770C954FEAD078A4FB005011951F
S315000046600EF1FF35C3F340730E95CEF1000501F050
S31500004670030C384476425F1EC9F100098910013ADD
S315000046804FEAD47A5B4210950029C0F231814FF08F
S31500004690010EE645804DB8BF0131D04513BFAC468B
S315000046A04FF0804C4FF0000E4FF0FF3E119D1CEB7B
S315000046B0050C4EEB0000002805DA6FF0004E1CEBEF
S315000046C00E0C40F100004FEADC7C4CEA400C6144E1
S315000046D00029ACBF4FF0000C4FF0FF3C6E48A8BF5E
S315000046E04FF080406D4DC1FB050CBCF1000F04DAA4
S315000046F06FF0004140184CF1000C0A99C00F40EAD7
S315000047004C0001440846491002D4C50748BF013190
S315000047100C44002CACBF00204FF0FF305E49A8BF10
S315000047204FF080415E4DC4FB0510002804DA6FF09F
S315000047300044091940F10000C90F41EA400101F1A6
S31500004740E2410598A1F52521A1F26C714FF0804E4A
S3150000475001EA000C002074468046524D4FF0F20AE2
S31500004760C1FB0548E40F44EA48042640069986EA58
S315000047700C0C0CEA0104064671464B4DCCFB0516A3
S31500004780C90F41EA4601F44606460B9D0D404749CE
S315000047906C40C4FB01C66146079DC90F41EA46014C
S315000047A0254009EA0109089989EA050909EA010487
S315000047B0054671463E4EC9FB0615C90F41EA45013D
S315000047C00F9D3C4E05EA01080D9988EA040808EA9F
S315000047D0010405467146C8FB0615C90F41EA4501A5
S315000047E0099D354E0D406C4071460546C4FB0615C5
S315000047F0C90F41EA45010B4027407B40C3FB0AE055
S315000048000E994FEADE7E0B4010994EEA400E01EA01
S315000048100E0E8EEA030E0C9B0EEA020282EA0308D3
S31500004820129ADDE91513C2FB0813002B04DA6FF0A8
S315000048300042891843F10003C90F41EA4301139A64
S31500004840149B0B4011414DD4199A934200DD01315E
S31500004850803911F17F0F48DB7E2900F3C68049B20B
S31500004860019B039A8BF8001093420BF1010B25D0A4
S315000048701A4612F9013F0192049A9B1A299A934209
S31500004880BFF66EAE8023039A8BF80030019B0BF1C6
S31500004890010B9342ECD111E0010000C0ABAAAA2A99
S315000048A094A8F5707BBEAF63F2CBA24D6CAC162F0D
S315000048B0A4AA5211B72A580211FE0A00029A1899A0
S315000048C01C9B114418912A99013311442A9103998A
S315000048D01C9311441D9A03919A427FF480AB1FB03A
S315000048E0BDE8F08F1B9A9342B1DC6FF07F01B7E70A
S315000048F04FF0020ECDE6009BB3F1004F00F0B28000
S315000049004FF08040002742F07F435C019B1AC3F3BF
S31500004910807104F18054C3F30066C4FB0407C3F33B
S3150000492040651091711EC3F3806C0591691EC3F337
S31500004930C06806910CF1FF31079108F1FF3108912B
S31500004940002F43F30071C3F3007A099104DA6FF084
S315000049500041401847F10007C00F40EA4700A0FB9E
S31500004960001EFF1700FB07F911F180414EEB490EBF
S31500004970BEF1000F0A9005DA6FF0004911EB09014C
S315000049804EF1000EB2FA82F26D4204FB07F75209AD
S315000049900B950AF1FF350D95C8F10005C2F1000827
S315000049A0CCF100090F954FEAE47C28F0004500FBA6
S315000049B00C770C954FEAD078A4FB00501195109D0A
S315000049C0C90F013D0E95109D41EA4E01C3F3407398
S315000049D06D4201F0030C384476425F1E8910013A9D
S315000049E04FEAD47A5B4210954EE67F2138E7B3F161
S315000049F0604F00F3AA8002F1004352001292B3F115
S31500004A00404F129BD8BF4FF0004312937FE5B4F19D
S31500004A10604F61DC4FF0FF35534C02F100423AE53E
S31500004A2000F08A800023DDF868B003214FF0804053
S31500004A3013914FF05A3219464C4C10F1804044F114
S31500004A400004002C04DA6FF00045401944F100041C
S31500004A50C00F40EA440002EB80024FF08045002779
S31500004A60D60FE1E400234FF0FF324148414C11904C
S31500004A700A944FF40031994617461E469A469846C0
S31500004A809C46CDE90F33CDE90B33CDE90823CDE9BB
S31500004A9006223948394C0E920D920592F7E500240C
S31500004AA04FF0FF364FF400326FF00041A346A446A4
S31500004AB0A046A146CDE90E66CDE90C46CDE90A44ED
S31500004AC0CDE907642A4F2C4B2A4D2C481096119499
S31500004AD009960696FFF7C0BB12EB840230D5012576
S31500004AE04FF0FF36204CD01703FB00F702FB017195
S31500004AF0A3FB02371B19394441EB0606002E04DAE4
S31500004B006FF000415B1846F10006DB0F43EA4603EF
S31500004B10C3F10053D90FA94208BF0024124914BF9C
S31500004B204FF0FF344FF08041CFE4019B7DE7002634
S31500004B304FF08045374677E4DDF868B0FFF762BA94
S31500004B4000254FF080442E46CDE702EB83035A0042
S31500004B50B3F1804F1292FFF652AF6FF000431293FB
S31500004B60D5E453001293D2E4010000C04B4B4B0B2B
S31500004B7000010040F8FFFF01FFFF1F00E0FFFF0FED
S31500004B802DE9F04F93B00192229ADDE91C49012AE2
S31500004B900FFA84FE0FFA89FC06900E910F93CEEA67
S31500004BA00E4ECCEA0C4C40F334811E466FF0030ADD
S31500004BB0209A00915142229A0123941E219A8B40F9
S31500004BC0103A22F00F0202F1100524F001023244DD
S31500004BD004320792219A013BAAEB020A520005927F
S31500004BE0209A0D9322EAE2720492B21C02920246C5
S31500004BF02A440392219A5B1004320992219A0B935C
S31500004C00013A01330C91119408950A921093019977
S31500004C10002900F0C9814A6851F8083B01912199A1
S31500004C200F2940F3C78100990998069D039F0C1828
S31500004C30CDF874905AF804B028684FEA3B294FEA39
S31500004C40302854F8041C0AEB04062CFA8BFB2CFAC9
S31500004C5089F92EFA80F02EFA88F820FB0B332CFA0D
S31500004C6081FB28FB0933D6F804904FEA31212CFA50
S31500004C7081F120FB0B2028FB010069684FEA392BE4
S31500004C804FEA31222CFA89F82CFA8BFBD4F80090E3
S31500004C902EFA81F12EFA82F221FB08332CFA89F8DA
S31500004CA022FB0B3BB3684FEA39292CFA89F921FB21
S31500004CB0080822FB0988A9684FEA33294FEA312000
S31500004CC062682CFA83F32CFA89F92EFA81F12EFA0E
S31500004CD080F021FB03BB2CFA82F320FB09BBD6F83C
S31500004CE00C904FEA32222CFA82F221FB038820FB39
S31500004CF00280EE684FEA39234FEA3622D4F808805C
S31500004D0010352CFA89F92CFA83F32EFA86F62EFA48
S31500004D1082F126FB09BB2CFA88F921FB03B34FEA83
S31500004D2038282CFA88F826FB090021FB0802BD4228
S31500004D3004F110047FF47EAF089800990746DDF869
S31500004D407490039C0D182199B94215DDCF1B0A9961
S31500004D50DDF870806E1E27440D4414F9011B16F908
S31500004D60010F4144484401FB003315F9010FBC42D1
S31500004D70484401FB0022F0D14FF080410020049C02
S31500004D801F9DA340C3FB0510CB0F209943EA4003A8
S31500004D90002940F3E8800499002B02FA01F2C0F2E0
S31500004DA00D814FF0804100201F9CC4FB0210C90FEB
S31500004DB051EA400100F1F4801E9A0598134411440B
S31500004DC0239A9342B8BF13469142B8BF1146009A40
S31500004DD00244249800928342A8BF03468142A8BF9A
S31500004DE00146029A02F8023C079B02329342029263
S31500004DF002F8031C7FF40BAF119B059A5B0803FBBB
S31500004E0002220E99013311440F9A0E9102EB4303CD
S31500004E100F93229BDB0740F1A280019B002B00F041
S31500004E20EB801A68219B0F2B40F3E880A3F1100852
S31500004E304FEA1818069B08F101080E994FEA081A5E
S31500004E4003EB08150E6818684FEA36242CFA86F626
S31500004E502CFA84F74FEA30242EFA80F02EFA84F4E6
S31500004E6020FB062224FB07244E685A684FEA3620A8
S31500004E702CFA86F62CFA80F74FEA32202EFA82F2C6
S31500004E802EFA80F022FB064220FB07208E689A68E5
S31500004E904FEA36242CFA86F62CFA84F74FEA3224A7
S31500004EA02EFA82F22EFA84F422FB060224FB072451
S31500004EB0CF68DA684FEA37264FEA322010311033CE
S31500004EC02CFA87F72CFA86F62EFA82F22EFA80F062
S31500004ED022FB074220FB0622AB42B3D10E9B534472
S31500004EE00E934FEA0813219999420EDDCB1A0E99BB
S31500004EF01C9E481E2B4415F9014B10F9011F344422
S31500004F0049449D4204FB0122F5D14FF08041002027
S31500004F10209B23EAE3739A401F9BC2FB0310CB0F2F
S31500004F2043EA4002209B002B0DDC01215B429940A5
S31500004F30013902EA01001A414FEA610148BF013115
S31500004F408842C8BF01321E9B1344239A9342B8BFBE
S31500004F501346249A9342A8BF13460F9A1370002053
S31500004F6013B0BDE8F08F0D9D0C9E03EA050033419A
S31500004F7030D4A2404FF0804100241F9FC7FB02148B
S31500004F80C90F41EA44010B9C0D403141A0420B9AE6
S31500004F90C8BF0133002905DBAA42B8BF01310BE7C0
S31500004FA000252A460132F7E72199019B0F291A4667
S31500004FB03FF739AE0027009D069CC4E600254FF05A
S31500004FC0804128461F9CC4FB0210C90F2A4641EAAD
S31500004FD04001DFE7049900258A404FF080411F9E7B
S31500004FE0109CC6FB02150D9AC90F41EA450102EA5B
S31500004FF001050C9A1141C9E7019A13E70023069DA2
S3150000500071E700BF2DE9F04F1D688BB09046DDE9D2
S31500005010146ADDE91829DDF858B01A9F3DB30C462D
S31500005020D9F80C30DAF80010D4E9030C0693D8F856
S3150000503004E00591CDF820C0A368D8F800C0079019
S31500005040CDF810E0D4E90010CDE9023CCDE900101E
S315000050503B46304659461892FFF792FDDAF80010A3
S31500005060D9F80C30013D189A0E441F44DCD10020BB
S315000050700BB0BDE8F08F00BF0020704719B3F0B544
S315000050804FF0000E951C32F81EC035F81E304FEA60
S315000050909C0C9B0850F82C6050F823700CF101040E
S315000050A040F82C7040F8236003F1010C50F82C6096
S315000050B050F824300EF1020E8E4540F8246040F878
S315000050C02C30E0D3F0BD70472DE9F0410546084687
S315000050D02DED088BB5F800806A684FEA580100EBA1
S315000050E088065FEAD80882B000F0B1804FEA810CEA
S315000050F00CF1100C00F1100300EB0C0403EB081884
S31500005100B44402F1100706F1100E1CED041A1CED52
S31500005110024A5CED014A1CED037A5EED022A5EED61
S31500005120013A5EED045A5EED030A13ED040A53EDEF
S31500005130036A13ED022A13ED013A54ED031A54EDF6
S31500005140027A14ED015A14ED046A72EE22AA33EEC5
S3150000515023AA76EE019A31EE879A77EE848A35EEA7
S31500005160248A70EE25BA36EEA0BA103443ED04BA9E
S3150000517003ED03BA43ED02AA03ED01AA103744ED8D
S31500005180089A04ED079A44ED068A04ED058A31EE85
S31500005190466A32EE622A70EE655A74EE672A76EE39
S315000051A0E06A74EEC57A37EE617A17ED085A57ED64
S315000051B0074A33EE633A26EE244A65EE853A26EE32
S315000051C0A41A65EEA45A67EE051A26EE056A66EE7F
S315000051D0856A27EE247A33EE815A76EEE56A37EE53
S315000051E0067A74EE615A0CF1100C0EED045A4EED6F
S315000051F0036A0CED077A4CED085A57ED055A57ED40
S31500005200066A22EE256A27EEA64A62EE264A23EEB3
S31500005210267A22EEA55A67EEA57A63EE253A62EE65
S31500005220A66A37EE467A74EEA35A35EE446A77EEEE
S31500005230A67A103343450EF1100E4EED065A0EEDCA
S31500005240057A0CED066A4CED057A7FF45EAF89B2FD
S315000052500223019100F0E4FA0223304601996A68BC
S3150000526002B0BDEC088BBDE8F04100F0D9BA00BF32
S315000052702DE9F04F2DED028B06468FB00C900846B7
S315000052803188D0ED007A490800EBC10595ED006A3A
S3150000529000EB810494ED007A77EE866A05EB8107D0
S315000052A097ED005AD5ED014AD0ED015A37EE263A70
S315000052B094ED012A77EEC67A33EE053A35EEA46A06
S315000052C075EEE45A4A08D7ED012A35EEC74A76EE5E
S315000052D0424A0992726880ED003A76EEC76A37EE66
S315000052E0257A74EEE25A74EE054A94ED014A8B0073
S315000052F0214672EE273A76EEC56A37EE457A36EEE5
S31500005300046A97ED015A77EEC27A0192099A08313A
S31500005310A2F10209019A089102F1080C019ACDF84E
S3150000532014C002F1100C019ACDF80CC0394602F1F6
S31500005330180C02462E4673EEE23A36EE056A77EE12
S31500005340A27A0831083280ED016A0A94C4ED003A67
S31500005350C4ED014A0B95CDF810C006920836C5ED8E
S31500005360006A07915FEA5901C5ED015A0296C7ED39
S31500005370007A87ED017A0D9100F03781019A0C3B96
S31500005380DDF80CB0A4F10C0604F1100EA5F10C0C1E
S3150000539002F1200A02F130093B4400F110081035F1
S315000053A0A7F10C0407F1100215ED026A58ED027A16
S315000053B01EED025A15ED017A58ED016A77EE861A4E
S315000053C052ED023A1EED014A77EEC67A35EE213AE3
S315000053D036EE876A76EEC76A76EE445A34EE277A58
S315000053E071EEC51A77EEC47A36EEC54A75EE266AB0
S315000053F033EE235A08F1080852ED012A08ED045A43
S315000054001EED015A083237EEA23A36EE056A52ED23
S31500005410037A36EE276A08ED036A37EE620A96EDDE
S31500005420025A34EE237A94ED024AD4ED014ADCEDB9
S31500005430027A96ED012A75EE040A93ED028A71EE60
S31500005440E31A76EEE36A72EE243A32EE642A77EED7
S31500005450A04A74EE884A9CED016A75EEE25A35EE72
S31500005460445AD3ED012AC6ED024A32EEC61ADCEDE5
S31500005470014A35EE464A33EEC66A34EE224A73EEE8
S31500005480A43A76EE622A93ED016A73EE863A77EED7
S31500005490C88AC6ED013A31EE451A1BED026A5BED8C
S315000054A0013A38EE825A70EEE77A38EEC22A77EE83
S315000054B0C87A67EE238A67EE064A64EE230A20EE70
S315000054C0237A24EE064A20EE068A25EE060A25EE03
S315000054D0235A74EEC74A35EE045A38EE286A30EE7F
S315000054E0C07A4EED014A0EED026A8CED015A8CED42
S315000054F0027A1AED047A1AED036A61EE874A65EEBE
